:060000000A128A110C280F
:10000800FE00030EF8000A08F9000A168A157F2D6B
:100018000A128A110F28831603170A128A11FA275F
:100028000A128A11CB000A128A11FB270A128A11B6
:10003800CC000A128A11FC270A128A11CD000A1272
:100048008A11FD270A128A11CE000A128A11FE2788
:100058000A128A11CF008317B7308400CB300A16F2
:100068008A15D8210A128A111030840060300A16C5
:100078008A15D8210A128A1183160313E901EA01A5
:10008800EB01EC01ED01F001F101F201F301F401E2
:1000980083010A168A11C32D831203134B08803972
:1000A800D5004B08D0005007DB00CA1F5C285D282C
:1000B8005E285B145B0803196228632872285B0AB0
:1000C800031D6728682870280030CB000030CA005C
:1000D8000030C9000030C800CA177A280030CB00A9
:1000E8000030CA000030C9000030C8004F0880390D
:1000F800FF007F08D5064F08D0005007D600CE1F56
:100108008628872888285614560803198C288D288D
:100118009C28560A031D912892289A280030CF005F
:100128000030CE000030CD000030CC00CE17A4281F
:100138000030CF000030CE000030CD000030CC00C1
:1001480056080319A828A928AE285B08031DAD285E
:10015800AE28B7280030CB000030CA000030C900F4
:100168000030C800942B4808A0004E080A168A15CB
:10017800D0220A128A11831203132108E1002008F1
:10018800E0006008D000D101D201D3015308DA00A1
:100198005208D9005108D8005008D7006108D0008B
:1001A800D101D201D3015308DF005208DE00510803
:1001B800DD005008DC004908A0004D080A168A1521
:1001C800D0220A128A11831203132108E1002008A1
:1001D800E0006008D000D101D201D3015008D70750
:1001E800510803110318013E0319FB28D8075208C8
:1001F80003110318013E03190229D90753080311F3
:100208000318013E03190929DA076108D000D10152
:10021800D201D3015008DC07510803110318013E2D
:1002280003191729DD07520803110318013E0319A2
:100238001E29DE07530803110318013E0319252957
:10024800DF074A08A0004C080A168A15D0220A12AD
:100258008A11831203132108E1002008E0006008D6
:10026800D000D101D201D3015008D707510803119A
:100278000318013E03194129D8075208031103182E
:10028800013E03194829D907530803110318013EF1
:1002980003194F29DA076108D000D101D201D3012F
:1002A8005008DC07510803110318013E03195D29A2
:1002B800DD07520803110318013E03196429DE07FC
:1002C800530803110318013E03196B29DF0708308F
:1002D800D0000310D70DD80DD90DDA0DD00B6D292C
:1002E8004908A0004C080A168A15D0220A128A1159
:1002F800831203132108E1002008E0006008D00001
:100308006108D100D201D3015008D7075108031161
:100318000318013E03199129D8075208031103183D
:10032800013E03199829D907530803110318013E00
:1003380003199F29DA074808A0004D080A168A15EC
:10034800D0220A128A11831203132108E10020081F
:10035800E0006008D0006108D100D201D301500844
:10036800D707510803110318013E0319BC29D80700
:10037800520803110318013E0319C329D90753086A
:1003880003110318013E0319CA29DA070830D000FF
:100398000310D70DD80DD90DDA0DD00BCC2948088C
:1003A800A0004C080A168A15D0220A128A11831254
:1003B80003132108E1002008E0006008D00061086C
:1003C800D100D201D3015008D707510803110318EF
:1003D800013E0319F029D807520803110318013EFA
:1003E8000319F729D907530803110318013E031904
:1003F800FE29DA074908A0004E080A168A15D022F5
:100408000A128A11831203132108E1002008E00070
:100418006008D0006108D100D201D3015008DC0780
:10042800510803110318013E03191B2ADD0752085E
:1004380003110318013E0319222ADE07530803118A
:100448000318013E0319292ADF074A08A0004D08AE
:100458000A168A15D0220A128A1183120313210858
:10046800E1002008E0006008D0006108D100D20156
:10047800D3015008DC07510803110318013E031982
:10048800462ADD07520803110318013E03194D2AB5
:10049800DE07530803110318013E0319542ADF0726
:1004A8004A08A0004E080A168A15D0220A128A1194
:1004B800831203132108E1002008E0006008D0003F
:1004C8006108D100D201D30108300310D00DD10D3D
:1004D800D20DD30DFF3E031D692A5008DC075108D1
:1004E80003110318013E03197A2ADD075208031184
:1004F8000318013E0319812ADE0753080311031864
:10050800013E0319882ADF075708D0005808D10090
:100518005908D2005A08D30018300310D30CD20C53
:10052800D10CD00CFF3E031D912A5008DC0751085E
:1005380003110318013E0319A22ADD07520803110B
:100548000318013E0319A92ADE07530803110318EB
:10055800013E0319B02ADF070830D0000310D70D79
:10056800D80DD90DDA0DD00BB22A5B085607D0008A
:10057800D101D10D5008823EE00051080318013E18
:10058800FF3EE100E42A0130D0000310DC0DDD0D50
:10059800DE0DDF0DD00BC92ADA1FD32AD42AD52ABB
:1005A8005C140130D0000310D70DD80DD90DDA0D29
:1005B800D00BD72AFF30E0070318E10AFF30E10724
:1005C800DE1FE72AE82AC72AD601DA1FEC2AED2A15
:1005D800092BFF305705D000FF305805D100FF30F8
:1005E8005905D2007F305A05D300530852045104EC
:1005F80050040319002B012B042BD601D60A092B12
:100608005C1C072B082B092B012B560803190D2BF3
:100618000E2B3F2B0130DC07003003180130DD07BB
:10062800003003180130DE07003003180130DF07FF
:100638005F1C1F2B202B3F2B5C08D0005D08D100CE
:100648005E08D2005F08D3000130D400530DD30CEC
:10065800D20CD10CD00CD40B2A2B5308DF00520833
:10066800DE005108DD005008DC000130E007031807
:10067800E10A0030E1076108803AFF0080307F021C
:10068800031D482BFF306002031C4B2B4C2B572BB0
:100698007F3083120313DF008030DE000030DD007E
:1006A8000030DC00882B831203136108803AFF00B6
:1006B80080307F02031D622B013060020318652B16
:1006C800662B722B003083120313DF000030DE002C
:1006D8000030DD000030DC00D501882B83120313C5
:1006E8006008DB00FF30DC05FF30DD057F30DE050C
:1006F8000030DF055B1C812B822B832BDE175B0808
:10070800D0000310500CDF005508FF007F08DF04FD
:100718005F08CB005E08CA005D08C9005C08C80015
:1007280008008312031323088039B0002308A800A7
:100738002807B200A21FA12BA22BA32B3214320828
:100748000319A72BA82BB82B320A031DAC2BAD2BF2
:10075800B52B0030A3000030A2000030A10000300B
:10076800A000A217A301C02B0030A3000030A200F4
:100778000030A1000030A00027088039B1003108FE
:1007880030060319C82BC92BCA2B30172708A80015
:100798002807B100A61FD12BD22BD32B3114310837
:1007A8000319D72BD82BE82B310A031DDC2BDD2BA3
:1007B800E52B0030A7000030A6000030A50000306F
:1007C800A400A617A701F02B0030A7000030A60050
:1007D8000030A5000030A400320831020318F52BC0
:1007E800F62B1C2C301FF92BFA2BFE2B8030FF0028
:1007F8007F08B0063208B3003108B2003308B100F0
:100808002008B3002408A0003308A4002108B3007E
:100818002508A1003308A5002208B3002608A20075
:100828003308A6002308B3002708A3003308A7004D
:10083800B3013108A800A9012908AB003208280231
:10084800AA00031CAB032B08803AFF0080307F020C
:10085800031D302C1A302A02031C332C342C6B2C29
:10086800831203132308220421042004031D3D2CB2
:100878003F2C0130402C0030B3000030A300003082
:10088800A2000030A1000030A0003108B200732C93
:10089800331C4F2C502C572C3308A8000310280C5D
:1008A8000138B300592C0310B30C201C5C2C5D2CB0
:1008B8005E2CB3170130A800230DA30CA20CA10CC9
:1008C800A00CA80B602C0130FF007F08B207831230
:1008D800031331083202031C722C732C4C2C301B6E
:1008E800762C772CC02C3208031D7B2C7C2C852C75
:1008F8000030A3000030A2000030A1000030A000AA
:10090800EC2D2408A007250803110318013E03193C
:100918008E2CA107260803110318013E0319952CF4
:10092800A207270803110318013E03199C2CA307EB
:10093800231C9F2CA02C742D331CA32CA42CAB2C73
:100948003308A8000310280C0138B300AD2C03109D
:10095800B30C201CB02CB12CB22CB3170130A8005A
:10096800230DA30CA20CA10CA00CA80BB42C0130D5
:10097800FF007F08B207742D2308803AFF0027087C
:10098800803A7F02031DD22C26082202031DD22C96
:1009980025082102031DD22C240820020318D52C77
:1009A800D62C2E2DFF30A800FF30A900FF30AA005A
:1009B800FF30AB002408AC002508AD002608AE00C7
:1009C8002708AF002008AC022108031C210FED2CDA
:1009D800EE2CAD022208031C220FF32CF42CAE02DD
:1009E8002308031C230FF92CFA2CAF022C08A807A4
:1009F8002D0803182D0F012D022DA9072E08031805
:100A08002E0F072D082DAA072F0803182F0AAB074A
:100A18002B08A3002A08A2002908A1002808A00082
:100A28008030FF007F08B006B309B30A3308031DFE
:100A38001E2D1F2D3C2D0130A0070030031801305A
:100A4800A107003003180130A20700300318013055
:100A5800A3073C2D2408A0022508031C250FA1028A
:100A68002608031C260FA2022708031C270FA3022F
:100A78002308220421042004031D432D442D702D36
:100A88003308031D482D492D702D0030A300003078
:100A9800A2000030A1000030A000EC2D0130A80019
:100AA8000310A00DA10DA20DA30DA80B542DB31F6B
:100AB8005E2D5F2D602D2014331C632D642D672D52
:100AC8000314B30D692D0310B30D320803196D2DEE
:100AD8006E2D702D0130B202A21F732D742D522D70
:100AE800B101B31F782D792D872D33087F3903196C
:100AF8007E2D7F2D822DB101B10A872D201C852DD9
:100B0800862D872D7F2D310803198B2D8C2DC02D17
:100B18000130A007003003180130A1070030031886
:100B28000130A207003003180130A307231C9D2DB4
:100B38009E2DC02D2008A8002108A9002208AA007F
:100B48002308AB000130AC002B0DAB0CAA0CA90C90
:100B5800A80CAC0BA82D2B08A3002A08A200290872
:100B6800A1002808A000320A0319BB2DBC2DC02DF6
:100B78000130FF007F08B207320A0319C42DC52DC2
:100B8800CA2D3208031DC92DCA2DD82D0030A30047
:100B98000030A2000030A1000030A0003208031D80
:100BA800D62DD72DD82DB001321CDB2DDC2DDE2D16
:100BB800A217E22D7F30FF007F08A2053208A800A7
:100BC8000310280CA300B01FEA2DEB2DEC2DA31762
:100BD80008008312031335088039BF003508B600B2
:100BE8003607C600B41FF92DFA2DFB2D461446080A
:100BF8000319FF2D002E102E460A031D042E052E64
:100C08000D2E0030B5000030B4000030B3000030C5
:100C1800B200B417B501182E0030B5000030B4008A
:100C28000030B3000030B20031088039FF007F087F
:100C3800BF063108B6003607C700B01F242E252E80
:100C4800262E4714470803192A2E2B2E3B2E470A17
:100C5800031D2F2E302E382E0030B1000030B0008A
:100C68000030AF000030AE00B017B101432E0030A5
:100C7800B1000030B0000030AF000030AE003108E5
:100C880030042F042E04031D4A2E4B2E642E0030F0
:100C9800B5000030B4000030B3000030B20080303E
:100CA800B4047F30B5043F08FF007F08B504350859
:100CB800B1003408B0003308AF003208AE00BB2FD3
:100CC8004608031D682E692E722E0030B1000030D0
:100CD800B0000030AF000030AE00BB2F4608B600B1
:100CE800B7013708B90047083602B800031CB90332
:100CF80038087F3EC00039080318013E003EC10095
:100D08003508BE003408BD003308BC003208BB00FB
:100D18000030B5000030B4000030B3000030B2003D
:100D28000030C5000030C4000030C3000030C200ED
:100D3800C701E82E47080319A22EA32EC32E01309F
:100D4800B6000310BB0DBC0DBD0DBE0DB60BA52E18
:100D58000130B6000310B20DB30DB40DB50DB60BCE
:100D6800AE2EC51FB82EB92EBA2E32140130B600D9
:100D78000310C20DC30DC40DC50DB60BBC2E310832
:100D88003E02031DD12E30083D02031DD12E2F082F
:100D98003C02031DD12E2E083B02031CD42ED52E57
:100DA800E42E45172E08BB022F08031C2F0FBC0288
:100DB8003008031C300FBD023108031C310FBE027E
:100DC8000130FF007F08C7071A304702031CED2EC9
:100DD800EE2E9E2E3E083D043C043B040319F52EDE
:100DE800F62E152F4214152F0130B6000310B20D40
:100DF800B30DB40DB50DB60BFA2EC51F042F052F74
:100E0800062F32140130B6000310C20DC30DC40DF5
:100E1800C50DB60B082FFF30C0070318C10AFF30F5
:100E2800C107B41F182F192FF82EC701C51F1D2F72
:100E38001E2F3A2FFF304205B600FF304305B7009A
:100E4800FF304405B8007F304505B900390838043B
:100E5800370436040319312F322F352FC701C70A3B
:100E68003A2F321C382F392F3A2F322F47080319BF
:100E78003E2F3F2F702F0130B2070030031801308A
:100E8800B307003003180130B407003003180130ED
:100E9800B507351C502F512F702F3208B600330874
:100EA800B7003408B8003508B9000130BA00390D68
:100EB800B90CB80CB70CB60CBA0B5B2F3908B500D7
:100EC8003808B4003708B3003608B2000130C0074C
:100ED8000318C10A0030C1074108803AFF0080307A
:100EE8007F02031D792FFF304002031C7C2F7D2FCA
:100EF8008B2FFF3083120313C0000030C100003075
:100F0800B5000030B4000030B3000030B2008312E6
:100F180003134108803AFF0080307F02031D962F9B
:100F2800013040020318992F9A2FA72F8312031319
:100F3800C001C1010030B5000030B4000030B3007A
:100F48000030B200BF01831203134008C600461CDC
:100F5800AE2FAF2FB12FB417B52F7F30FF007F080A
:100F6800B4054608B6000310360CB500572E080025
:100F7800FF1BC62F83137F1883170008840A0319E1
:100F8800FF0A080007308A000408840A8207003430
:100F98004134633465346C343A34203425342E3487
:100FA800313466342534253400344D346F34643498
:100FB8006F343A3420344E346F3472346D346134C3
:100FC8006C3400344D346F3464346F343A34203424
:100FD80054347534723462346F34003469346E3486
:100FE800663400346E3461346E34003408340034AE
:100FF8001A342C343E340800831603179000E4306A
:10100800910010089200940195019B019C018316A0
:1010180003136308DF009130E00092300A168A1546
:101028003C220A128A158316031714081007831620
:101038000313E800680884008317800108003F3024
:1010480083160313D5008030D4000030D30000305D
:10105800D200B901BA014F0883120313A300831603
:1010680003134E0883120313A200831603134D08BB
:1010780083120313A100831603134C08831203136E
:10108800A0000030A7000030A6000030A500003006
:10109800A4000A168A15A3230A128A1503185528CC
:1010A80056284F2A6728831603134008D5003F089F
:1010B800D4003E08D3003D08D2000130B907031818
:1010C800BA0A0030BA07413083120313CB0020302C
:1010D800CA000030C9000030C80083160313550841
:1010E80083120313CF0083160313540883120313C8
:1010F800CE0083160313530883120313CD008316FF
:101108000313520883120313CC000A128A115020C9
:101118000A128A15831203134B0883160313C0009F
:10112800831203134A0883160313BF0083120313A1
:10113800490883160313BE00831203134808831655
:101148000313BD004C08A5004D08A6004E08A700D3
:101158004F08A8003D08A5023E08031C3E0FB5280D
:10116800B628A6023F08031C3F0FBB28BC28A702CD
:101178004008031C400FC128C228A802280883126F
:101188000313A30083160313270883120313A20073
:1011980083160313260883120313A100831603136F
:1011A800250883120313A0000A168A1508220A12BA
:1011B8008A1583120313A31BF1282308031DF228A1
:1011C8002208031DF2282108031DF22802302002FC
:1011D800031DEE28031CF128F22857288316031351
:1011E800400883120313E500831603133F08831294
:1011F8000313E400831603133E0883120313E3006A
:10120800831603133D0883120313E20083160313A6
:101218004F0883120313E900831603134E08831241
:101228000313E800831603134D0883120313E70022
:10123800831603134C0883120313E6000A168A1553
:10124800A2260A128A15031C2A292B295728831635
:1012580003134C08A5004D08A6004E08A7004F0828
:10126800A8005208A5025308031C530F3C293D2926
:10127800A6025408031C540F42294329A702550803
:10128800031C550F48294929A8022808831203136B
:10129800A30083160313270883120313A2008316DF
:1012A8000313260883120313A100831603132508CA
:1012B80083120313A0000A168A1508220A128A1537
:1012C80083120313A31B79292308031D78292208F5
:1012D800031D78292108031D782902302002031DE7
:1012E8007529031878297929162A831603135508AE
:1012F800CF005408CE005308CD005208CC004F2A26
:10130800413083120313B1002030B0000030AF0029
:101318000030AE0083160313550883120313B5007B
:1013280083160313540883120313B400831603139C
:10133800530883120313B30083160313520883124E
:101348000313B2000A128A11ED250A128A158312B4
:101358000313310883160313D500831203133008CF
:1013680083160313D400831203132F088316031361
:10137800D300831203132E0883160313D200FF3001
:10138800B9070318BA0AFF30BA074C08A5004D0878
:10139800A6004E08A7004F08A8005208A502530847
:1013A800031C530FD829D929A6025408031C540F2B
:1013B800DE29DF29A7025508031C550FE429E52972
:1013C800A802280883120313A3008316031327080F
:1013D80083120313A2008316031326088312031330
:1013E800A10083160313250883120313A0000A160D
:1013F8008A1508220A128A1583120313A31B152AB9
:101408002308031D142A2208031D142A2108031D7A
:10141800142A02302002031D112A0318142A152A3F
:10142800162A7929831603134F0883120313E5003C
:10143800831603134E0883120313E4008316031361
:101448004D0883120313E300831603134C08831219
:101458000313E20083160313550883120313E900EC
:1014680083160313540883120313E8008316031327
:10147800530883120313E7008316031352088312D9
:101488000313E6000A168A15A2260A128A15031CF7
:101498004E2A4F2A8429831603132408B2003208DF
:1014A800B300EC1B582A592A5E2A6C08AC006B085A
:1014B800AB00622A0630AB000030AC002C08B70045
:1014C8002B08B6000130B6070318B70A0030B70773
:1014D80066303306031D712A722A8C2ABA1F752AB0
:1014E800762A802A3F30D5008030D4000030D300DF
:1014F8000030D200B901BA01673032060319852AD3
:10150800862A8C2A3908B6070318B70A3A08B70793
:10151800C101C2014F08C6004E08C5004D08C400ED
:101528004C08C3005508C0005408BF005308BE004B
:101538005208BD00D92B83160313550883120313D1
:10154800B10083160313540883120313B0008316E3
:101558000313530883120313AF00831603135208AF
:1015680083120313AE008316031346088312031372
:10157800B50083160313450883120313B4008316BA
:101588000313440883120313B30083160313430899
:1015980083120313B2000A128A11ED250A128A1562
:1015A800831203133108CB003008CA002F08C90082
:1015B8002E08C8000A168A112E220A128A158312CA
:1015C80003134B0883160313CA00831203134A0834
:1015D80083160313C90083120313490883160313E0
:1015E800C80083120313480883160313C7004A0868
:1015F80083120313A30083160313490883120313EA
:10160800A20083160313480883120313A10083164C
:101618000313470883120313A0000A168A15072527
:101628000A128A1583120313210883160313B500BF
:1016380083120313200883160313B400550883127A
:101648000313CF0083160313540883120313CE0029
:1016580083160313530883120313CD008316031351
:10166800520883120313CC00831603134A0883120B
:101678000313CB0083160313490883120313CA000C
:1016880083160313480883120313C9008316031330
:10169800470883120313C8000A128A1150200A123D
:1016A8008A15831203134B08E5004A08E400490829
:1016B800E3004808E2008316031346088312031365
:1016C800E90083160313450883120313E800831601
:1016D8000313440883120313E70083160313430814
:1016E80083120313E6000A168A155D220A128A1568
:1016F80083120313650883160313C60083120313AA
:10170800640883160313C500831203136308831642
:101718000313C40083120313620883160313C30060
:10172800413083120313B1002030B0000030AF0005
:101738000030AE0083160313550883120313B50057
:1017480083160313540883120313B4008316031378
:10175800530883120313B30083160313520883122A
:101768000313B2000A128A11ED250A128A15831290
:101778000313310883160313D500831203133008AB
:1017880083160313D400831203132F08831603133D
:10179800D300831203132E0883160313D2000130DB
:1017A800C1070318C20A0030C2074208803AA500E0
:1017B8003708803A2502031DE32B36084102031C33
:1017C800E62BE72B9F2A403083120313CB00A0306F
:1017D800CA000030C9000030C8008316031355083A
:1017E80083120313CF0083160313540883120313C1
:1017F800CE0083160313530883120313CD008316F8
:101808000313520883120313CC000A128A115020C2
:101818000A128A15831203134B0883160313CA008E
:10182800831203134A0883160313C9008312031390
:10183800490883160313C800831203134808831644
:101848000313C700460883120313E5008316031326
:10185800450883120313E400831603134408831214
:101868000313E30083160313430883120313E200F0
:10187800831603134A0883120313E900831603131C
:10188800490883120313E8008316031348088312D8
:101898000313E70083160313470883120313E600B4
:1018A8000A168A15A2260A128A1503185C2C5D2CC2
:1018B800682C003083160313CA000030C9000030BA
:1018C800C8000030C700AF2C8316031346088312E4
:1018D8000313A30083160313450883120313A200FE
:1018E80083160313440883120313A10083160313FA
:1018F800430883120313A000831603134A088312B4
:101908000313A70083160313490883120313A600C1
:1019180083160313480883120313A50083160313C1
:10192800470883120313A4000A168A15A3230A1270
:101938008A15031CA02CA12CAF2C83160313341872
:10194800A62CA72CAF2C0030CA000030C9000030EC
:10195800C8000030C700831603134A088312031314
:10196800A30083160313490883120313A2008316E6
:101978000313480883120313A100831603134708AF
:1019880083120313A000831603134F088312031353
:10199800A700831603134E0883120313A6008316A9
:1019A80003134D0883120313A500831603134C0871
:1019B80083120313A4000A128A1195230A128A15A6
:1019C80083120313230883160313C6008312031319
:1019D800220883160313C5008312031321088316F4
:1019E8000313C40083120313200883160313C300D0
:1019F800460883120313E500831603134508831270
:101A08000313E40083160313440883120313E3004B
:101A180083160313430883120313E2004130CB00FB
:101A28002030CA000030C9000030C80083160313F4
:101A3800400883120313CF00831603133F08831251
:101A48000313CE00831603133E0883120313CD003D
:101A5800831603133D0883120313CC000A128A115C
:101A680050200A128A15831203134B08E9004A080A
:101A7800E8004908E7004808E6000A168A15A22681
:101A88000A128A15031C492D4A2D9D2D01308316F3
:101A98000313B9070318BA0A0030BA074130831292
:101AA8000313CB002030CA000030C9000030C80042
:101AB80083160313400883120313CF0083160313FE
:101AC8003F0883120313CE00831603133E088312C4
:101AD8000313CD00831603133D0883120313CC00B0
:101AE8000A128A1150200A128A15831203134B080E
:101AF80083160313C000831203134A0883160313C3
:101B0800BF0083120313490883160313BE00831210
:101B18000313480883160313BD0066303306031DFC
:101B2800962D972D9D2D0130B6070318B70A003062
:101B3800B707831603134008D5003F08D4003E08B2
:101B4800D3003D08D2003A08AA003908A900B1011B
:101B5800AD01AE01C101C201732F831603135508ED
:101B680083120313B100831603135408831203135B
:101B7800B00083160313530883120313AF008316B0
:101B88000313520883120313AE0083160313460887
:101B980083120313B5008316031345088312031336
:101BA800B40083160313440883120313B300831687
:101BB8000313430883120313B2000A128A11ED2596
:101BC8000A128A15831203133108CB003008CA00A1
:101BD8002F08C9002E08C8000A168A112E220A12D8
:101BE8008A15831203134B0883160313CA00831242
:101BF80003134A0883160313C90083120313490801
:101C080083160313C80083120313480883160313AB
:101C1800C7004A0883120313A30083160313490855
:101C280083120313A20083160313480883120313B5
:101C3800A10083160313470883120313A0000A1692
:101C48008A1507250A128A15831203132108803A78
:101C5800FF0080307F02031D332E0A302002031854
:101C6800362E372E612E831603134A088312031368
:101C7800A30083160313490883120313A2008316D3
:101C88000313480883120313A1008316031347089C
:101C980083120313A0000A168A1507250A128A154B
:101CA80083120313210883160313B5008312031349
:101CB800200883160313B400672E09308316031314
:101CC800B4000030B5003108031D6B2E6C2E9D2E1C
:101CD800AA1F6F2E702E9D2E5008103E84002E30A5
:101CE800831780000130D0070318D10A0030D107CC
:101CF800FF30BB070318BC0AFF30BC07B101B10AAB
:101D08009D2E5008103E840030308317800001302B
:101D1800D0070318D10A0030D107FF30BB070318DA
:101D2800BC0AFF30BC07FF30AD070318AE0AFF300E
:101D3800AE072D082E04031DA22EA32E852E5008B3
:101D4800103E84003408303E831780000130D007ED
:101D58000318D10A0030D107FF30BB070318BC0AAB
:101D6800FF30BC07550883120313CF0083160313F3
:101D7800540883120313CE008316031353088312E7
:101D88000313CD0083160313520883120313CC00E8
:101D9800831603134A0883120313CB008316031315
:101DA800490883120313CA008316031348088312D1
:101DB8000313C90083160313470883120313C800CB
:101DC8000A128A1150200A128A15831203134B082B
:101DD800E5004A08E4004908E3004808E2008316E1
:101DE8000313460883120313E900831603134508F7
:101DF80083120313E80083160313440883120313A2
:101E0800E70083160313430883120313E6000A1638
:101E18008A155D220A128A15831203136508831630
:101E28000313C60083120313640883160313C50043
:101E380083120313630883160313C4008312031366
:101E4800620883160313C300413083120313B100E1
:101E58002030B0000030AF000030AE00831603130E
:101E6800550883120313B50083160313540883120D
:101E78000313B40083160313530883120313B30028
:101E880083160313520883120313B2000A128A112D
:101E9800ED250A128A1583120313310883160313DA
:101EA800D50083120313300883160313D40083125A
:101EB80003132F0883160313D300831203132E086A
:101EC80083160313D200FF30A9070318AA0AFF30AC
:101ED800AA070130C1070318C20A0030C207420826
:101EE800803AA5003708803A2502031D7D2F360861
:101EF80041020318802F812F902F83160313510856
:101F0800803AFF0080307F02031D8C2F4B30500237
:101F1800031C8F2F902FB12D4F3083160313C10050
:101F28000030C2004108103E840083178001103041
:101F380083120313A000831603135108831203139B
:101F4800A20083160313500883120313A100103054
:101F580083160313A5005008A502410825070A1691
:101F68008A15A8220A128A158316031350084102FB
:101F7800D0005108031C510A4202D1004B08031D2E
:101F8800C62FC82F0130C92F0030A500A60125088B
:101F9800C1002608C2004B080319D32FD42FE02F05
:101FA800FF30D0070318D10AFF30D1075008103E80
:101FB80084004B08831780004108BB024208031CB9
:101FC800BC03BC025008103E83120313AF008316F3
:101FD80003133C0883120313B100831603133B0851
:101FE80083120313B0008316031338080A168A15E0
:101FF80023230A128A1508004130831203139F0015
:102008008030831603139F000800831603173E08C9
:1020180083120313AF00831603173D0883120313BB
:10202800AE00831603173C0883120313AD00831612
:1020380003173B0883120313AC002308AF002208E0
:10204800AE002108AD002008AC002C08A4002D0823
:10205800A5002E08A6002F08A70017300310A70C0C
:10206800A60CA50CA40CFF3E031D3228FF30240546
:10207800AA0000302505AB002A082B04031D4528BB
:10208800462869282C08A4002D08A5002E08A600BB
:102098002F08A70001300310A40DA50DA60DA70D4C
:1020A800FF3E031D4F282708260425042404031D8A
:1020B8005E285F2864280230A0000030A10095281F
:1020C8000330A0000030A10095282A0A2B04031D24
:1020D8006E286F2891282C08A4002D08A5002E082A
:1020E800A6002F08A70009300310A40DA50DA60D02
:1020F800A70DFF3E031D782827082604250424047D
:1021080003198728892801308A280030A800A901E6
:102118002808A0002908A10095280430A000003054
:10212800A100080083120313A200221C9C289D28EA
:10213800B2280130A00073080739013EA528031012
:10214800A00DFF3E031DA3282008FF00700884008F
:102158008317711C83137F088004C7280130A000EF
:1021680073080739013EBA280310A00DFF3E031D6E
:10217800B8282008FF3AFF00700884008317711CF4
:1021880083137F088005A21CCA28CB28E3280130C6
:10219800A000730CA100A10C210C0739013ED62820
:1021A8000310A00DFF3E031DD4282008FF0070086F
:1021B80084008317711C83137F088004FB28013077
:1021C800A000730CA100A10C210C0739013EEE28D8
:1021D8000310A00DFF3E031DEC282008FF3AFF0066
:1021E800700884008317711C83137F088005221DE3
:1021F800FE28FF2814290130A00074080739013E81
:1022080007290310A00DFF3E031D05292008FF0024
:10221800700884008317711C83137F0880042929A0
:102228000130A00074080739013E1C290310A00DD5
:10223800FF3E031D1A292008FF3AFF00700884009A
:102248008317711C83137F088005A21D2C292D2953
:1022580045290130A000740CA100A10C210C0739FC
:10226800013E38290310A00DFF3E031D3629200822
:10227800FF00700884008317711C83137F08800493
:102288005D290130A000740CA100A10C210C0739B4
:10229800013E50290310A00DFF3E031D4E292008C2
:1022A800FF3AFF00700884008317711C83137F08AE
:1022B800800508007030840083120313260880000C
:1022C800840A27088000840A28088000840A2908CC
:1022D8008000840A2A08800000307106031D7629D0
:1022E80005307006031D79297A297E298316031380
:1022F8008501B52900307106031D84290630700652
:10230800031D872988298C29831603138601B5297B
:1023180000307106031D922907307006031D9529A8
:1023280096299A29831603138701B5290030710667
:10233800031DA02908307006031DA329A429A82974
:10234800831603138801B52900307106031DAE29D1
:1023580009307006031DB129B2292D2A83160313EB
:1023680089010D3083120313AC00FB30AB00AB0BBB
:10237800BB29AC0BBB2903300A168A154D240A1653
:102388008A11043083120313AC003D30AB00AB0B51
:10239800CB29AC0BCB2903300A168A154D240A1613
:1023A8008A110B3083120313AC006130AB00AB0B06
:1023B800DB29AC0BDB29E02903300A168A154D24EA
:1023C8000A168A1102300A168A154D240A168A112D
:1023D80002300A168A154D240A168A1108300A1680
:1023E8008A154D240A168A1100300A168A154D24BA
:1023F8000A168A1106300A168A154D240A168A11F9
:10240800083083120313AD002D152D08AB000430DE
:102418000310AB0CFF3E031D0C2A2B080F390A16BC
:102428008A154D240A168A11831203132D080F39B1
:102438000A168A154D240A168A1100300A168A15BA
:102448004D240A168A1101300A168A154D240A16D7
:102458008A110800831603173A0883120313DB0056
:1024680083160317390883120313DA008316031738
:10247800380883120313D900831603173708831209
:102488000313D8004B08DB004A08DA004908D900D2
:102498004808D8005808CC005908CD005A08CE0082
:1024A8005B08CF0017300310CF0CCE0CCD0CCC0C32
:1024B800FF3E031D572AFF304C05D00000304D0564
:1024C800D1005008813ED60051080318013EFF3E56
:1024D800D7005708803AFF0080307F02031D762A14
:1024E80017305602031C792A7A2A7B2A3C2B83123E
:1024F8000313D71B802A812AF12A560AFF00FF30CE
:10250800CC00FF30CD007F30CE000030CF00912AC4
:102518004F0DCF0CCE0CCD0CCC0CFF0B8C2A4F08DA
:10252800D5004E08D4004D08D3004C08D2005208FC
:102538005805CC0053085905CD0054085A05CE005B
:1025480055085B05CF004F084E044D044C04031D8D
:10255800AE2AAF2AB02A7A2A5808CC005908CD00EA
:102568005A08CE005B08CF001F300310CF0CCE0CEA
:10257800CD0CCC0CFF3E031DB92A4F084E044D0468
:102588004C040319C82AC92AE02A5208D807530854
:1025980003110318013E0319D22AD907540803115D
:1025A8000318013E0319D92ADA075508031103183D
:1025B800013E0319E02ADB075209CC005309CD007C
:1025C8005409CE005509CF004C08D8054D08D90547
:1025D8004E08DA054F08DB05342B5808CC0059089B
:1025E800CD005A08CE005B08CF001F300310CF0C77
:1025F800CE0CCD0CCC0CFF3E031DFA2A4F084E041E
:102608004D044C04031D092B0A2B132B0030DB004F
:102618000030DA000030D9000030D800342B5808D8
:10262800CC005908CD005A08CE005B08CF00013015
:102638000310CC0DCD0DCE0DCF0DFF3E031D1C2B71
:102648004F084E044D044C0403192B2B2C2B342B10
:10265800BF30DB008030DA000030D9000030D8000D
:102668005B08CB005A08CA005908C9005808C800B6
:10267800080083160313DD0056088400831300083E
:1026880084000A128A11C6270A168A11253A031DE0
:102698004E2B4F2B482C0130FF00560884007F0832
:1026A8008007E901EA010310003003180130ED004A
:1026B800FF30EB00FF30EC0056088400000884006F
:1026C8000A128A11C6270A168A112E3A031D6D2B83
:1026D8006E2B8C2B0130FF00560884007F08800782
:1026E800570883120313A6008316031356080A1605
:1026F8008A15A9240A168A11831203132708831638
:102708000313EC0083120313260883160313EB004C
:102718005608840083130008DE005E0884000A124D
:102728008A11C6270A168A11DC00A42B0130FF0083
:102738007F08DE07AF2B6C30DC00AF2BDC01AF2B42
:102748005C084C3A03199A2B2A3A03199F2B0A3A28
:1027580003199A2BA22B5E0884000A128A11C62735
:102768000A168A11663A031DBA2BBB2B182CE82BC4
:102778005708840083170008FF00043080077F088B
:10278800840083130008D800840A0008D900840A4A
:102798000008DA00840A0008DB00F02B57088400E0
:1027A80083170008FF00043080077F088400831324
:1027B8000008D800840A0008D900840A0008DA0052
:1027C800840A0008DB00F02B5C084C3A0319D22B72
:1027D800203A0319BC2BF02B560884005E08013EF2
:1027E80080000D2C5B08A3005A08A2005908A1001C
:1027F8005808A0005E0884000A128A11C6270A1623
:102808008A11A4005D080A168A1166240A168A111C
:10281800652C5E0884000A128A11C6270A168A11D6
:10282800663A0319F62B182C560884000008840011
:102838000A128A11C6270A168A11253A031D252C61
:10284800262C3E2C0130FF00560884007F088007A4
:10285800253083120313A0000030A1008316031350
:102868005D0883120313A2000A168A15F3230A16B9
:102878008A11652C0130FF00831603135608840063
:102888007F0883138007652C56088400000884009D
:102898000A128A11C6270A168A1183120313EE0038
:1028A800EF016E08A0006F08A100831603135D08EE
:1028B80083120313A2000A168A15F3230A168A1133
:1028C8003E2C080083160313B800CB012308CF0061
:1028D8002208CE002108CD002008CC004F08831222
:1028E8000313E500831603134E0883120313E40051
:1028F800831603134D0883120313E300831603138F
:102908004C0883120313E2000030E9000030E800AD
:102918000030E7000030E6000A168A15A2260A16DB
:102928008A110318982C992CD02C83160313CB01E9
:10293800CB0A4F0883120313A300831603134E0810
:1029480083120313A200831603134D088312031383
:10295800A100831603134C0883120313A0000A1660
:102968008A15EB210A168A1183120313230883168A
:102978000313CF0083120313220883160313CE0018
:1029880083120313210883160313CD008312031344
:10299800200883160313CC0083160313D001D1013A
:1029A8006A08BC006908BB004B080319DC2CDD2C45
:1029B800ED2C4B08031DE12CE22CE72C2B30AF004B
:1029C8000030B000EB2C2D30AF000030B0002F08E5
:1029D800CB004F0883120313A300831603134E087A
:1029E80083120313A200831603134D0883120313E3
:1029F800A100831603134C0883120313A0000A16C0
:102A08008A1109200A168A1183120313200321044C
:102A1800031D0F2D102D572D831603134B08031973
:102A2800162D172D272D4B08831203179000FF3002
:102A380083160313BB070318BC0AFF30BC07013019
:102A4800D0000030D100273083120313A000831672
:102A580003135008103E0A168A151F220A168A11F7
:102A6800FD3083160313BB070318BC0AFF30BC07ED
:102A7800103083120313AF00831603133C0883122C
:102A88000313B100831603133B0883120313B0002A
:102A98008316031338080A168A1523230A168A117F
:102AA8000A128A15FF2F831603134F088312031384
:102AB800A300831603134E0883120313A200831680
:102AC80003134D0883120313A100831603134C0844
:102AD80083120313A0000A168A1109200A168A1104
:102AE8008312031320082104031D7B2D7E2D0A1257
:102AF8008A152328831603134B080319842D852D63
:102B0800952D4B08831203179000FF30831603138B
:102B1800BB070318BC0AFF30BC070130D0000030E7
:102B2800D1002B3083120313A0008316031350081F
:102B3800103E0A168A151F220A168A11FD308316BE
:102B48000313BB070318BC0AFF30BC0710308312FD
:102B58000313AF00831603133C0883120313B10059
:102B6800831603133B0883120313B0008316031361
:102B780038080A168A1523230A168A11542D831633
:102B880003138701831203138715B030840083165B
:102B980003174B0883178000840A4C088000840AB6
:102BA8004D088000840A4E088000840A4F0880007F
:102BB80026308400300883138000840A310880009E
:102BC800840A32088000840A33088000840A3408A2
:102BD80080000A168A115E210A168A110A168A15B9
:102BE800D0210A168A110A168A1100200A168A119B
:102BF8000A168A15E0210A168A110A168A15F8217A
:102C08000A168A1183120313210883160317B600C4
:102C180083120313200883160317B5004A08031DFF
:102C2800162E172EAB2E8312031387150712423068
:102C3800CB00C830CA000030C9000030C80044309A
:102C4800B1005E30B0006330AF00D730AE008316FD
:102C58000317350883120313A000831603173608D9
:102C680083120313A100A201A30100300A168A15DA
:102C780046270A168A11831203132308B50022086F
:102C8800B4002108B3002008B2000A128A11ED2509
:102C98000A168A11831203133108CF003008CE00B8
:102CA8002F08CD002E08CC000A128A1150200A16CF
:102CB8008A11831203134B0883160317C200831269
:102CC80003134A0883160317C10083120313490824
:102CD80083160317C00083120313480883160317CB
:102CE800BF00423083120313E500C830E40000300F
:102CF800E3000030E200831603174208831203132F
:102D0800E90083160317410883120313E8008316AA
:102D18000317400883120313E700831603173F08BD
:102D280083120313E6000A168A15A2260A168A11C8
:102D380003189F2EA02E7E2F423083160317C20041
:102D4800C830C1000030C0000030BF007E2F8312A1
:102D58000313071687114230CB00E630CA00003053
:102D6800C9000030C8004430B1007F30B000C03026
:102D7800AF000030AE008316031735088312031323
:102D8800A00083160317360883120313A100A201BB
:102D9800A30100300A168A1546270A168A118312DB
:102DA80003132308B5002208B4002108B300200843
:102DB800B2000A128A11ED250A168A11831203132A
:102DC8003108CF003008CE002F08CD002E08CC00E7
:102DD8000A128A1150200A168A11831203134B080B
:102DE80083160317C200831203134A0883160317B6
:102DF800C10083120313490883160317C000831206
:102E08000313480883160317BF00423083120313C5
:102E1800E500E630E4000030E3000030E20083160D
:102E28000317420883120313E900831603174108A6
:102E380083120313E8008316031740088312031351
:102E4800E700831603173F0883120313E6000A16E8
:102E58008A15A2260A168A110318332F342F3E2FFB
:102E6800423083160317C200E630C1000030C000AC
:102E78000030BF0083160317420883120313A30010
:102E880083160317410883120313A200831603173E
:102E9800400883120313A100831603173F08831207
:102EA8000313A0004230A700E630A6000030A500BA
:102EB8000030A4000A168A15A3230A168A11031CD7
:102EC800662F672F7E2F831603174908031D6D2F62
:102ED8006E2F7E2F47084804031D732F742F7E2FF3
:102EE8000130C9000030C6000030C5000030C40001
:102EF8000030C30000300A168A154D240A168A11BC
:102F080001300A168A154D240A168A1108300A1645
:102F18008A154D240A168A1100300A168A154D247E
:102F28000A168A11013083160313E3008316031768
:102F3800420883160313E700831603174108831614
:102F48000313E60083160317400883160313E500EE
:102F5800831603173F0883160313E400A0300A12F0
:102F68008A1500200A168A11A03083120313A600BE
:102F78000130A7000A168A155D230A168A110C303B
:102F88000A168A154D240A168A1100300A168A155F
:102F98004D240A168A11831603174A08031DD52FD4
:102FA800D62FE22F0E3083120313A6008030A7001D
:102FB8000A168A155D230A168A11ED2F1B30831213
:102FC8000313A6008030A7000A168A155D230A1687
:102FD8008A110230831603179F0004309E00B9300F
:102FE8009D009D0BF52F9E0BF52F9F0BF52FFC2FAA
:082FF800012E0A128A110C28B7
:1033A0008B170B170B168316031301130C1408004D
:1033B00064008001840A0406031900340406D92934
:1033C00083120313901010169016DC308E000B3011
:1033D0008F00101408008312031323082204210411
:1033E00020040319F429F529F7298030A3060800E1
:1033F000831203131F151F19FE29FF29FB291E081D
:10340000A100831603131E0883120313A0000800F3
:1034100083120313A31B0D2A0E2A0F2A1E2A20092A
:10342000A0002109A1002209A2002309A300A00AEB
:103430000319A10A0319A20A0319A30A0800831297
:103440000313A2002208A1000130A007FF302007CB
:1034500084000A128A11C6270A168A15FF0021085D
:1034600084000130A1077F08831780000008031D36
:103470003A2A3B2A242A080083160313E1005F0836
:10348000E2004C2AE230D6006008D70061080A1634
:103490008A113D230A168A158316031362088400D5
:1034A0000A128A11C6270A168A15003A031D592ADC
:1034B0005A2A422ADF01E0010800803083120313F8
:1034C000E5066908A3006808A2006708A10066086D
:1034D000A0006508A7006408A6006308A5006208AC
:1034E000A4000A128A1195230A168A15831203135F
:1034F0002308E5002208E4002108E3002008E20098
:10350000080083120313A401A501201C882A892A1C
:103510008F2A2208A4070318A50A2308A50701304B
:103520000310A20DA30DFF3E031D902A01300310CE
:10353000A10CA00CFF3E031D972A20082104031DA7
:10354000A22AA32A852A2508A1002408A000080091
:1035500083120313A4002008A6002408A500C12A92
:103560002608840083170008A3000130FF007F08AD
:10357000A60725088400230880000130FF007F088B
:10358000A5070130A1020030031CA203A202210AF8
:10359000031DCE2A220A031DCE2ACF2AB02A0800F4
:1035A00083120313A800A401A5012008A200A3010F
:1035B0002208A6002308A700281CDF2AE02AE62A02
:1035C0002608A4070318A50A2708A5070130031039
:1035D000A60DA70DFF3E031DE72A0310A80C28081F
:1035E000031DF32AF42ADC2A2508A1002408A000E0
:1035F000080083120313AB00AD01AE01152B2C089C
:10360000A900AA012908A0002A08A1002808A200F0
:103610000A168A15F3230A168A150130831203133A
:10362000AD070318AE0A0030AE072D082B07A9001E
:103630002908840083170008AC002C08031D212BE7
:10364000222BFF2A080083120313B500B11F292B78
:103650002A2B2C2BB001B101B301B401442B203033
:1036600083120313A0000030A1003508A2000A163F
:103670008A15F3230A168A15013083120313B30740
:103680000318B40A0030B4073408803AB200310895
:10369000803A3202031D4E2B30083302031C512B9B
:1036A000522B2F2B831203133508A8002F080A165C
:1036B0008A15F9220A168A15080083120313AB0132
:1036C000AC01862B2B082607A9002708A8000318A1
:1036D000A80AAB1F6C2BA803831203132808AA00A7
:1036E0002A08FF00290884000A128A11BC270A163A
:1036F0008A150A168A1500260A168A1501308312C1
:103700000313AB070318AC0A0030AC072B082607DD
:10371000A9002708A8000318A80AAB1F902BA8032C
:10372000831203132808AA002A08FF00290884002E
:103730000A128A11BC270A168A15003A031DA12B0A
:10374000A22B622B08000030831203132005A8006F
:1037500000302105A90080302205AA007F30230512
:10376000AB002B082A0429042804031DB82BB92B0D
:10377000C12B0030A3000030A2000030A1000030B7
:10378000A00000302405A80000302505A9008030E5
:103790002605AA007F302705AB002B082A04290440
:1037A0002804031DD42BD52BDD2B0030A7000030BF
:1037B000A6000030A5000030A40027082306031D42
:1037C000EB2B26082206031DEB2B25082106031DE3
:1037D000EB2B240820060319EE2BEF2BF12B031003
:1037E000F22B031408008312031322080319F92B88
:1037F000FA2BFF2B2208031DFE2BFF2B062C200883
:103800000A128A11FF270A168A154C2C2208093E33
:10381000840083170008A300840A0008A40023087A
:1038200024040319142C152C332C2208093E84007F
:103830000008A300840A0008A4002208023E8400B5
:103840000008A500840A0008A6002608803AA70000
:103850002408803A2702031D2F2C23082502031871
:10386000322C332C4C2C831203132208023E84008A
:1038700083170008A3002208840000082307A4007F
:1038800024088400200880002208023E84000130C1
:103890008007840A0318800A080083120313A50016
:1038A0000130A30072080739013E582C0310A30D04
:1038B000FF3E031D562C2308FF3AFF0070088400CA
:1038C0008317711C83137F08800525080A168A1147
:1038D00096200A168A15013083120313A300720C76
:1038E000A400A40C240C0739013E782C0310A30D6E
:1038F000FF3E031D762C2308FF0070088400831709
:10390000711C83137F088004033083120313A40007
:103910009730A300A30B8A2CA40B8A2C01308312AE
:103920000313A300720CA400A40C240C0739013E5D
:103930009B2C0310A30DFF3E031D992C2308FF3A77
:10394000FF00700884008317711C83137F088005B3
:10395000080083120313AB00A901AA012B088400FD
:103960008313000884000A128A11C6270A168A15D2
:103970002A3A031DBC2CBD2CF12C0130FF002B0872
:1039800084007F0880072608840083170008FF0052
:10399000023080077F08840083130008A900840A8E
:1039A0000008AA00022D2A08A1002908A0000A3058
:1039B000A2000030A3000A168A1581220A168A1571
:1039C0008312031328082007A900003003180130D0
:1039D0002107AA000130FF002B0884007F08831311
:1039E00080072B088400000884000A128A11C62769
:1039F0000A168A15D03EA8000A302802031C012DA1
:103A0000022DD32C2A08A7002908A60008000310BD
:103A100083120313220D230DA9002908031D112D64
:103A2000122D1B2D0030A3000030A2000030A10099
:103A30000030A0007E2D2008A4002108A500220847
:103A4000A6002308A7001F300310A70CA60CA50C86
:103A5000A40CFF3E031D242D2408A800A217FF304C
:103A6000A005FF30A105FF30A2050030A305963068
:103A7000A902A91F3C2D3D2D572D2908803A973EBC
:103A80000318432D442D452D122D01300310A30C96
:103A9000A20CA10CA00CFF3E031D462D0130FF001F
:103AA0007F08A907031D552D562D452D6E2D20305D
:103AB0002902031C5C2D5D2D692D122D0130A400FF
:103AC0000310A00DA10DA20DA30DA40B602D0130BC
:103AD000A9022908031D6D2D6E2D5E2D28080319DE
:103AE000722D732D7E2DA009A109A209A309A00A98
:103AF0000319A10A0319A20A0319A30A08008B1CBF
:103B0000822D832D8E2D831603174A080319892DC4
:103B10008B2D01308C2D0030CA008B1083120313C3
:103B20000C1C932D942DF92D0C10DC308E000B30D5
:103B30008F0083160317490803199F2DA02DCF2D41
:103B40000130C307003003180130C40700300318E8
:103B50000130C507003003180130C6074608031DB1
:103B6000BF2D4508031DBF2D4408031DBF2D143074
:103B70004302031DBB2D031CBE2DBF2DF92D831643
:103B80000317C9010030C6000030C5000030C40072
:103B90000030C3000A30C7000030C800F92D4708C4
:103BA00048040319D42DD52DF92D0130C70200305A
:103BB000031CC803C80210308312031387060330A6
:103BC000F7008A30F6005530F500F50BE52DF60BC1
:103BD000E52DF70BE52DEC2D831603174708480458
:103BE000031DF32DF42DF92DCA01831203130712BF
:103BF000F92D79088A00780E8300FE0E7E0E0900EA
:103C000083120313A5000130A30072080739013E97
:103C10000B2E0310A30DFF3E031D092E2308FF00EA
:103C2000700884008317711C83137F0880042508A3
:103C3000A30004300310A30CFF3E031D1A2E23081B
:103C40000F390A168A1196200A168A150130831236
:103C50000313A300720CA400A40C240C0739013E2A
:103C6000332E0310A30DFF3E031D312E2308FF004A
:103C7000700884008317711C83137F08800405304B
:103C800083120313A300A30B432E462E013083128D
:103C90000313A300720CA400A40C240C0739013EEA
:103CA000532E0310A30DFF3E031D512E2308FF3A90
:103CB000FF00700884008317711C83137F08800540
:103CC00025080F390A168A1196200A168A1501301E
:103CD00083120313A300720CA400A40C240C073954
:103CE000013E742E0310A30DFF3E031D722E230808
:103CF000FF00700884008317711C83137F08800401
:103D0000053083120313A300A30B842E872E0130EA
:103D100083120313A300720CA400A40C240C073913
:103D2000013E942E0310A30DFF3E031D922E230887
:103D3000FF3AFF00700884008317711C83137F080B
:103D4000800508000030831203136205EA0000308A
:103D50006305EB0080306405EC007F306505ED0005
:103D60006D086C046B046A04031DB72EB82EC02EB8
:103D70000030E5000030E4000030E3000030E200F5
:103D800000306605EA0000306705EB00803068050A
:103D9000EC007F306905ED006D086C046B046A046B
:103DA000031DD32ED42EDC2E0030E9000030E800B5
:103DB0000030E7000030E600E51FDF2EE02E042F84
:103DC0000030EA000030EB000030EC008030ED0005
:103DD0006208EA026308031C630FEF2EF02EEB0269
:103DE0006408031C640FF52EF62EEC026508031C14
:103DF000650FFB2EFC2EED026D08E5006C08E4005B
:103E00006B08E3006A08E200E91F072F082F2C2F38
:103E10000030EA000030EB000030EC008030ED00B4
:103E20006608EA026708031C670F172F182FEB02BA
:103E30006808031C680F1D2F1E2FEC026908031C65
:103E4000690F232F242FED026D08E9006C08E800AC
:103E50006B08E7006A08E6008030E5068030E90676
:103E600069086502031D3E2F68086402031D3E2F8A
:103E700067086302031D3E2F660862020318412F84
:103E8000422F442F0310452F0314080083120313FD
:103E9000A800280803194D2F4E2F622FA31F512F62
:103EA000522F622F2009AA002109AB002209AC0081
:103EB0002309AD00AA0A0319AB0A0319AC0A0319B6
:103EC000AD0A6A2F2308AD002208AC002108AB0020
:103ED0002008AA002308220421042004031D712FB6
:103EE000722F7B2F0030A3000030A2000030A10011
:103EF0000030A000FF2F9630A9008B2F0130FF006B
:103F00007F08A90701300310AD0CAC0CAB0CAA0C58
:103F1000FF3E031D832FFE302D05031D902F912F93
:103F20007E2FAD2F0130FF007F08A9070130AA07BF
:103F3000003003180130AB07003003180130AC0724
:103F4000003003180130AD0701300310AD0CAC0C8C
:103F5000AB0CAA0CFF3E031DA52FFF302D05031D42
:103F6000B22FB32F922FBF2F0130A9020130A4002E
:103F70000310AA0DAB0DAC0DAD0DA40BB82FAC1BEF
:103F8000C22FC32FC92F023029020318C82FC92FEF
:103F9000B42F2918CC2FCD2FD52FFF30AA05FF30F5
:103FA000AB057F30AC05FF30AD050310A90C290827
:103FB000A400A501A601A70118300310A40DA50DAA
:103FC000A60DA70DFF3E031DDD2F2408AA0425081A
:103FD000AB042608AC042708AD0428080319F12F08
:103FE000F22FF72FA31FF52FF62FF72FAD172D0860
:103FF000A3002C08A2002B08A1002A08A00008009A
:02400E007A3FF7
:00000001FF
